:100000000C942A000C943C000C943C000C943C0092
:100010000C943C000C943C000C943C000C943C0070
:100020000C943C000C943C000C943C000C943C0060
:100030000C943C000C9404070C9437070C946A074A
:100040000C943C000C943C000C943C000C943C0040
:100050000C943C0011241FBECFE5D8E0DEBFCDBF1D
:1000600010E0A0E6B0E001C01D92A636B107E1F7AE
:100070000E949D070C94C1070C940000DF93CF935E
:10008000CDB7DEB782E063E041E00E947B0182E011
:1000900064E041E00E947B0182E060E041E00E9478
:1000A0007B0182E061E041E00E947B01CF91DF9122
:1000B0000895DF93CF9300D0CDB7DEB79A838983BD
:1000C00082E064E041E00E947D0282E063E040E083
:1000D0000E947D0282E061E041E00E947D0282E0B8
:1000E00060E040E00E947D0289819A810E942305A0
:1000F00089819A810E9411050F900F90CF91DF9115
:100100000895DF93CF9300D000D0CDB7DEB79A83A8
:1001100089837C836B8382E064E041E00E947D02FE
:1001200082E063E040E00E947D0282E061E041E025
:100130000E947D0282E060E040E00E947D028981B1
:100140009A810E9423058B819C810E9411050F904A
:100150000F900F900F90CF91DF910895DF93CF9381
:1001600000D000D0CDB7DEB79A8389837C836B83C0
:1001700082E064E041E00E947D0282E063E040E0D2
:100180000E947D0282E061E041E00E947D0282E007
:1001900060E040E00E947D0289819A810E942305EF
:1001A0008B819C810E9411050F900F900F900F90F2
:1001B000CF91DF910895DF93CF9300D0CDB7DEB715
:1001C0009A83898382E064E040E00E947D0282E0BD
:1001D00063E041E00E947D0282E061E040E00E9435
:1001E0007D0282E060E041E00E947D0289819A8187
:1001F0000E94230589819A810E9411050F900F901A
:10020000CF91DF910895DF93CF9300D0CDB7DEB7C4
:100210009A83898382E063E040E00E947D0282E06D
:1002200064E040E00E947D0282E060E040E00E94E5
:100230007D0282E061E041E00E947D0280E090E08A
:100240000E94230589819A810E9411050F900F90C9
:10025000CF91DF910895DF93CF9300D0CDB7DEB774
:100260009A83898382E063E040E00E947D0282E01D
:1002700064E041E00E947D0282E060E040E00E9494
:100280007D0282E061E040E00E947D0289819A81E6
:100290000E94230580E090E00E9411050F900F90CE
:1002A000CF91DF910895DF93CF9300D0CDB7DEB724
:1002B0009A83898382E063E040E00E947D0282E0CD
:1002C00064E040E00E947D0282E060E040E00E9445
:1002D0007D0282E061E040E00E947D0289819A8196
:1002E0000E94230589819A810E9411050F900F9029
:1002F000CF91DF910895DF93CF93CDB7DEB72797E6
:100300000FB6F894DEBF0FBECDBF89836A834B83DF
:100310008B81882309F075C08981282F30E03F83C5
:100320002E838E819F818230910561F12E813F81E4
:100330002330310534F48E819F818130910569F03D
:10034000D3C02E813F812330310589F18E819F8179
:100350008430910509F440C0C7C0AAE3B0E0EAE3E5
:10036000F0E08081482F8A81282F30E081E090E002
:10037000022E02C0880F991F0A94E2F78095842309
:100380008C93B2C0A7E3B0E0E7E3F0E08081482FB0
:100390008A81282F30E081E090E0022E02C0880F91
:1003A000991F0A94E2F7809584238C939DC0A4E35F
:1003B000B0E0E4E3F0E08081482F8A81282F30E02C
:1003C00081E090E0022E02C0880F991F0A94E2F7A4
:1003D000809584238C9388C0A1E3B0E0E1E3F0E052
:1003E0008081482F8A81282F30E081E090E0022E22
:1003F00002C0880F991F0A94E2F7809584238C939A
:1004000073C08B81813009F06FC08981282F30E063
:100410003D832C838C819D818230910551F12C810B
:100420003D812330310534F48C819D8181309105EB
:1004300061F05AC02C813D812330310571F18C81EE
:100440009D8184309105E9F14FC0AAE3B0E0EAE371
:10045000F0E08081482F8A81282F30E081E090E011
:10046000022E02C0880F991F0A94E2F7842B8C9306
:100470003BC0A7E3B0E0E7E3F0E08081482F8A814A
:10048000282F30E081E090E0022E02C0880F991FF3
:100490000A94E2F7842B8C9327C0A4E3B0E0E4E352
:1004A000F0E08081482F8A81282F30E081E090E0C1
:1004B000022E02C0880F991F0A94E2F7842B8C93B6
:1004C00013C0A1E3B0E0E1E3F0E08081482F8A812E
:1004D000282F30E081E090E0022E02C0880F991FA3
:1004E0000A94E2F7842B8C9327960FB6F894DEBF1C
:1004F0000FBECDBFCF91DF910895DF93CF93CDB7DE
:10050000DEB727970FB6F894DEBF0FBECDBF898345
:100510006A834B838B81882309F075C08981282FDA
:1005200030E03F832E838E819F818230910561F17F
:100530002E813F812330310534F48E819F818130BB
:10054000910569F0D3C02E813F812330310589F1B7
:100550008E819F818430910509F440C0C7C0ABE310
:10056000B0E0EBE3F0E08081482F8A81282F30E073
:1005700081E090E0022E02C0880F991F0A94E2F7F2
:10058000809584238C93B2C0A8E3B0E0E8E3F0E068
:100590008081482F8A81282F30E081E090E0022E70
:1005A00002C0880F991F0A94E2F7809584238C93E8
:1005B0009DC0A5E3B0E0E5E3F0E08081482F8A81AB
:1005C000282F30E081E090E0022E02C0880F991FB2
:1005D0000A94E2F7809584238C9388C0A2E3B0E06C
:1005E000E2E3F0E08081482F8A81282F30E081E02B
:1005F00090E0022E02C0880F991F0A94E2F78095BE
:1006000084238C9373C08B81813009F06FC0898102
:10061000282F30E03D832C838C819D818230910591
:1006200051F12C813D812330310534F48C819D8141
:100630008130910561F05AC02C813D812330310514
:1006400071F18C819D8184309105E9F14FC0ABE35C
:10065000B0E0EBE3F0E08081482F8A81282F30E082
:1006600081E090E0022E02C0880F991F0A94E2F701
:10067000842B8C933BC0A8E3B0E0E8E3F0E08081FA
:10068000482F8A81282F30E081E090E0022E02C0BE
:10069000880F991F0A94E2F7842B8C9327C0A5E357
:1006A000B0E0E5E3F0E08081482F8A81282F30E038
:1006B00081E090E0022E02C0880F991F0A94E2F7B1
:1006C000842B8C9313C0A2E3B0E0E2E3F0E08081DE
:1006D000482F8A81282F30E081E090E0022E02C06E
:1006E000880F991F0A94E2F7842B8C9327960FB6F4
:1006F000F894DEBF0FBECDBFCF91DF910895DF9399
:10070000CF9300D000D0CDB7DEB789836A838981CB
:10071000282F30E03C832B838B819C818230910594
:10072000D9F02B813C812330310534F48B819C81BD
:100730008130910561F01EC02B813C812330310551
:1007400081F08B819C818430910581F013C0EBE3B3
:10075000F0E08A8180830EC0E8E3F0E08A81808344
:1007600009C0E5E3F0E08A81808304C0E2E3F0E0C1
:100770008A8180830F900F900F900F90CF91DF911F
:100780000895DF93CF9300D000D0CDB7DEB7898333
:100790006A838981282F30E03C832B838B819C8165
:1007A00082309105D9F02B813C812330310534F41E
:1007B0008B819C818130910561F01EC02B813C8131
:1007C0002330310581F08B819C818430910581F04B
:1007D00013C0EBE3F0E08A8180830EC0E8E3F0E031
:1007E0008A81808309C0E5E3F0E08A81808304C0C8
:1007F000E2E3F0E08A8180830F900F900F900F90DA
:10080000CF91DF910895DF93CF9300D000D00F9266
:10081000CDB7DEB78A836B838A81282F30E03D8392
:100820002C834C815D814230510541F18C819D8149
:100830008330910534F42C813D812130310561F004
:1008400052C04C815D814330510551F18C819D81B5
:1008500084309105B9F147C0E9E3F0E08081282FA9
:1008600030E08B81882F90E0A90102C05595479513
:100870008A95E2F7CA018170898335C0E6E3F0E02A
:100880008081282F30E08B81882F90E0A90102C061
:10089000559547958A95E2F7CA018170898323C0EF
:1008A000E3E3F0E08081282F30E08B81882F90E017
:1008B000A90102C0559547958A95E2F7CA01817052
:1008C000898311C0E0E3F0E08081282F30E08B8144
:1008D000882F90E0A90102C0559547958A95E2F7C7
:1008E000CA018170898389810F900F900F900F90BA
:1008F0000F90CF91DF910895DF93CF93CDB7DEB7FF
:10090000AFE4B0E0EFE4F0E0808180688C93AFE486
:10091000B0E0EFE4F0E080818F7B8C93AFE4B0E057
:10092000EFE4F0E080818E7F8C93AFE4B0E0EFE401
:10093000F0E0808182608C93AEE4B0E0EEE4F0E021
:10094000808180618C93AEE4B0E0EEE4F0E08081E1
:1009500088608C93AEE4B0E0EEE4F0E080818B7FC1
:100960008C93AEE4B0E0EEE4F0E0808182608C93A2
:10097000AEE4B0E0EEE4F0E080818E7F8C93CF9126
:10098000DF910895DF93CF93CDB7DEB7A3E5B0E055
:10099000E3E5F0E0808180648C93A3E5B0E0E3E5DB
:1009A000F0E0808188608C93A3E5B0E0E3E5F0E0BF
:1009B000808180628C93A3E5B0E0E3E5F0E0808184
:1009C0008F7E8C93A3E5B0E0E3E5F0E080818B7F40
:1009D0008C93A3E5B0E0E3E5F0E0808182608C9346
:1009E000A3E5B0E0E3E5F0E080818E7F8C9382E0C8
:1009F00063E041E00E947B01CF91DF910895DF9396
:100A0000CF9300D0CDB7DEB79A838983E6E4F0E0D8
:100A100089819A81918380830F900F90CF91DF918C
:100A20000895DF93CF9300D0CDB7DEB79A83898343
:100A3000EAE4F0E089819A81918380830F900F909E
:100A4000CF91DF910895DF93CF9300D0CDB7DEB77C
:100A50009A838983ECE5F0E0898180830F900F9081
:100A6000CF91DF910895DF93CF9300D0CDB7DEB75C
:100A700087E690E09A838983E9E2F0E089818083C8
:100A8000E0E4F0E089819A81892F99278083ABE2A5
:100A9000B0E0EBE2F0E080818D7F8C93AAE2B0E0E1
:100AA000EAE2F0E080818B7F8C93E0E4F0E086E87E
:100AB0008083AAE2B0E0EAE2F0E0808180618C937A
:100AC000AAE2B0E0EAE2F0E0808188608C930F90C7
:100AD0000F90CF91DF910895DF93CF930F92CDB711
:100AE000DEB78983EAE2F0E080818295869587709F
:100AF000882F90E0817090700097A1F3ECE2F0E015
:100B000089818083EAE2F0E0808182958695877012
:100B1000882F90E0817090700097A1F3AAE2B0E076
:100B2000EAE2F0E0808180648C930F90CF91DF91B6
:100B30000895DF93CF9300D000D00F92CDB7DEB7EA
:100B40008D8319821A821B821C8217C089819A8127
:100B5000AB81BC810196A11DB11D89839A83AB83B2
:100B6000BC8389819A81AB81BC81883823E192075B
:100B700020E0A20720E0B20761F0EAE2F0E0808125
:100B8000829586958770882F90E08170907000978D
:100B9000E9F289819A81AB81BC81883823E192078F
:100BA00020E0A20720E0B20799F119821A821B8285
:100BB0001C82ECE2F0E08D81808317C089819A81EC
:100BC000AB81BC810196A11DB11D89839A83AB8342
:100BD000BC8389819A81AB81BC81883823E19207EB
:100BE00020E0A20720E0B20761F0EAE2F0E08081B5
:100BF000829586958770882F90E08170907000971D
:100C0000E9F2AAE2B0E0EAE2F0E0808180648C934D
:100C10000F900F900F900F900F90CF91DF9108954C
:100C2000DF93CF9300D0CDB7DEB79A8389830EC010
:100C3000E981FA818081882F90E09C0189819A81E5
:100C400001969A838983C9010E941006E981FA817D
:100C50008081882369F70F900F90CF91DF910895DD
:100C60000F931F93DF93CF9300D00F92CDB7DEB7D2
:100C70009B838A8319828981282F30E08A819B8116
:100C80008C01020F131F0E949506F80180830FC08C
:100C900089818F5F89838981282F30E08A819B81B8
:100CA0008C01020F131F0E949506F8018083898131
:100CB000282F30E08A819B81FC01E20FF31F8081A5
:100CC000833231F78981282F30E08A819B81FC01B2
:100CD000E20FF31F10820F900F900F90CF91DF91D2
:100CE0001F910F910895DF93CF930F92CDB7DEB789
:100CF0008983EBE2F0E08081882324F0ECE2F0E0ED
:100D0000898180830F90CF91DF910895DF93CF93F6
:100D1000CDB7DEB7EBE2F0E080818823DCF7ECE2D0
:100D2000F0E08081CF91DF910895DF93CF93CDB72D
:100D3000DEB7ECE2F0E08081CF91DF910895DF93A0
:100D4000CF9300D000D00F92CDB7DEB78FEF8D8359
:100D500019821A821B821C8217C089819A81AB81F9
:100D6000BC810196A11DB11D89839A83AB83BC838D
:100D700089819A81AB81BC81883823E1920720E088
:100D8000A20720E0B20729F0EBE2F0E0808188239F
:100D900024F789819A81AB81BC81883823E192074D
:100DA00020E0A20720E0B20721F0ECE2F0E0808131
:100DB0008D838D810F900F900F900F900F90CF919A
:100DC000DF910895DF93CF9300D00F92CDB7DEB7B8
:100DD00089837B836A838981833080F48A819B81C4
:100DE000009761F08981882F90E0880F991FFC019E
:100DF000E05AFF4F8A819B81918380830F900F90EF
:100E00000F90CF91DF9108951F920F920FB60F921E
:100E100011242F933F934F935F936F937F938F93FF
:100E20009F93AF93BF93EF93FF93DF93CF93CDB790
:100E3000DEB78091600090916100009729F0E09109
:100E40006000F09161000995CF91DF91FF91EF91E2
:100E5000BF91AF919F918F917F916F915F914F91D2
:100E60003F912F910F900FBE0F901F9018951F92DA
:100E70000F920FB60F9211242F933F934F935F93CE
:100E80006F937F938F939F93AF93BF93EF93FF9352
:100E9000DF93CF93CDB7DEB780916200909163006E
:100EA000009729F0E0916200F09163000995CF91DD
:100EB000DF91FF91EF91BF91AF919F918F917F91C2
:100EC0006F915F914F913F912F910F900FBE0F90B7
:100ED0001F9018951F920F920FB60F9211242F9307
:100EE0003F934F935F936F937F938F939F93AF93B2
:100EF000BF93EF93FF93DF93CF93CDB7DEB780918E
:100F0000640090916500009729F0E0916400F091F1
:100F100065000995CF91DF91FF91EF91BF91AF915E
:100F20009F918F917F916F915F914F913F912F9101
:100F30000F900FBE0F901F901895DF93CF930F92D5
:100F4000CDB7DEB781E06FEF0E947F0384E062E0FF
:100F50000E947F030E9433050E9495068983898140
:100F6000863431F481E060E041E00E947D02F7CFF9
:100F700089818234A1F781E061E041E00E947D0235
:060F8000EECFF894FFCF54
:00000001FF
